{
  "contractName": "ICO",
  "abi": [
    {
      "constant": true,
      "inputs": [],
      "name": "IcoToken",
      "outputs": [
        {
          "name": "",
          "type": "address"
        }
      ],
      "payable": false,
      "stateMutability": "view",
      "type": "function"
    },
    {
      "constant": true,
      "inputs": [],
      "name": "discountedEthTokensRemaining",
      "outputs": [
        {
          "name": "",
          "type": "uint256"
        }
      ],
      "payable": false,
      "stateMutability": "view",
      "type": "function"
    },
    {
      "constant": true,
      "inputs": [],
      "name": "stopped",
      "outputs": [
        {
          "name": "",
          "type": "bool"
        }
      ],
      "payable": false,
      "stateMutability": "view",
      "type": "function"
    },
    {
      "constant": true,
      "inputs": [],
      "name": "owner",
      "outputs": [
        {
          "name": "",
          "type": "address"
        }
      ],
      "payable": false,
      "stateMutability": "view",
      "type": "function"
    },
    {
      "constant": true,
      "inputs": [
        {
          "name": "",
          "type": "address"
        }
      ],
      "name": "whitelist",
      "outputs": [
        {
          "name": "",
          "type": "bool"
        }
      ],
      "payable": false,
      "stateMutability": "view",
      "type": "function"
    },
    {
      "constant": true,
      "inputs": [],
      "name": "DefToken",
      "outputs": [
        {
          "name": "",
          "type": "address"
        }
      ],
      "payable": false,
      "stateMutability": "view",
      "type": "function"
    },
    {
      "constant": true,
      "inputs": [],
      "name": "deploymentTime",
      "outputs": [
        {
          "name": "",
          "type": "uint256"
        }
      ],
      "payable": false,
      "stateMutability": "view",
      "type": "function"
    },
    {
      "constant": true,
      "inputs": [],
      "name": "discountedDefTokensRemaining",
      "outputs": [
        {
          "name": "",
          "type": "uint256"
        }
      ],
      "payable": false,
      "stateMutability": "view",
      "type": "function"
    },
    {
      "inputs": [
        {
          "name": "_IcoTokenAddress",
          "type": "address"
        },
        {
          "name": "_whitelistedAddresses",
          "type": "address[]"
        }
      ],
      "payable": false,
      "stateMutability": "nonpayable",
      "type": "constructor"
    },
    {
      "anonymous": false,
      "inputs": [
        {
          "indexed": false,
          "name": "buyer",
          "type": "address"
        },
        {
          "indexed": false,
          "name": "EthOrDef",
          "type": "uint8"
        },
        {
          "indexed": false,
          "name": "EthOrDefUnits",
          "type": "uint256"
        },
        {
          "indexed": false,
          "name": "IcoUnits",
          "type": "uint256"
        }
      ],
      "name": "Sale",
      "type": "event"
    },
    {
      "anonymous": false,
      "inputs": [],
      "name": "StopIco",
      "type": "event"
    },
    {
      "constant": true,
      "inputs": [
        {
          "name": "_numTokens",
          "type": "uint256"
        }
      ],
      "name": "EthCost",
      "outputs": [
        {
          "name": "",
          "type": "uint256"
        }
      ],
      "payable": false,
      "stateMutability": "view",
      "type": "function"
    },
    {
      "constant": true,
      "inputs": [
        {
          "name": "_numTokens",
          "type": "uint256"
        }
      ],
      "name": "DefCost",
      "outputs": [
        {
          "name": "",
          "type": "uint256"
        }
      ],
      "payable": false,
      "stateMutability": "view",
      "type": "function"
    },
    {
      "constant": false,
      "inputs": [],
      "name": "Stop",
      "outputs": [],
      "payable": false,
      "stateMutability": "nonpayable",
      "type": "function"
    },
    {
      "constant": false,
      "inputs": [
        {
          "name": "_numTokens",
          "type": "uint256"
        }
      ],
      "name": "BuyUsingEth",
      "outputs": [],
      "payable": true,
      "stateMutability": "payable",
      "type": "function"
    },
    {
      "constant": false,
      "inputs": [
        {
          "name": "_numTokens",
          "type": "uint256"
        }
      ],
      "name": "BuyUsingDef",
      "outputs": [],
      "payable": false,
      "stateMutability": "nonpayable",
      "type": "function"
    }
  ],
  "bytecode": "0x608060405273907b98479a589abafc72926837b726b0d3582c3f600160006101000a81548173ffffffffffffffffffffffffffffffffffffffff021916908373ffffffffffffffffffffffffffffffffffffffff16021790555067016345785d8a000060025567016345785d8a00006003556000600760006101000a81548160ff02191690831515021790555034801561009857600080fd5b50604051611167380380611167833981018060405281019080805190602001909291908051820192919050505060008033600560006101000a81548173ffffffffffffffffffffffffffffffffffffffff021916908373ffffffffffffffffffffffffffffffffffffffff1602179055506000809054906101000a900473ffffffffffffffffffffffffffffffffffffffff16600560006101000a81548173ffffffffffffffffffffffffffffffffffffffff021916908373ffffffffffffffffffffffffffffffffffffffff16021790555042600681905550836000806101000a81548173ffffffffffffffffffffffffffffffffffffffff021916908373ffffffffffffffffffffffffffffffffffffffff16021790555082519150600090505b8181101561023f5760016004600085848151811015156101d757fe5b9060200190602002015173ffffffffffffffffffffffffffffffffffffffff1673ffffffffffffffffffffffffffffffffffffffff16815260200190815260200160002060006101000a81548160ff02191690831515021790555080806001019150506101bb565b50505050610f15806102526000396000f3006080604052600436106100c5576000357c0100000000000000000000000000000000000000000000000000000000900463ffffffff16806309a00fb1146100ca57806311975656146101215780631fbdab75146101625780632c55694d146101825780633747181c146101af57806375f12b21146101da5780638da5cb5b146102095780639b19251a14610260578063b0910f9f146102bb578063bedf0f4a14610312578063c844595d14610329578063ecda10f51461036a578063f787ce4114610395575b600080fd5b3480156100d657600080fd5b506100df6103c0565b604051808273ffffffffffffffffffffffffffffffffffffffff1673ffffffffffffffffffffffffffffffffffffffff16815260200191505060405180910390f35b34801561012d57600080fd5b5061014c600480360381019080803590602001909291905050506103e5565b6040518082815260200191505060405180910390f35b6101806004803603810190808035906020019092919050505061042a565b005b34801561018e57600080fd5b506101ad6004803603810190808035906020019092919050505061071e565b005b3480156101bb57600080fd5b506101c4610d53565b6040518082815260200191505060405180910390f35b3480156101e657600080fd5b506101ef610d59565b604051808215151515815260200191505060405180910390f35b34801561021557600080fd5b5061021e610d6c565b604051808273ffffffffffffffffffffffffffffffffffffffff1673ffffffffffffffffffffffffffffffffffffffff16815260200191505060405180910390f35b34801561026c57600080fd5b506102a1600480360381019080803573ffffffffffffffffffffffffffffffffffffffff169060200190929190505050610d92565b604051808215151515815260200191505060405180910390f35b3480156102c757600080fd5b506102d0610db2565b604051808273ffffffffffffffffffffffffffffffffffffffff1673ffffffffffffffffffffffffffffffffffffffff16815260200191505060405180910390f35b34801561031e57600080fd5b50610327610dd8565b005b34801561033557600080fd5b5061035460048036038101908080359060200190929190505050610e7d565b6040518082815260200191505060405180910390f35b34801561037657600080fd5b5061037f610edd565b6040518082815260200191505060405180910390f35b3480156103a157600080fd5b506103aa610ee3565b6040518082815260200191505060405180910390f35b6000809054906101000a900473ffffffffffffffffffffffffffffffffffffffff1681565b6000806000905060025483111561040c57600a600254028101905060025483039250610419565b600a830281019050600092505b601483028101905080915050919050565b600061012c60065401421015151561044157600080fd5b614650600654014210151561045557600080fd5b60001515600760009054906101000a900460ff16151514151561047757600080fd5b600460003373ffffffffffffffffffffffffffffffffffffffff1673ffffffffffffffffffffffffffffffffffffffff16815260200190815260200160002060009054906101000a900460ff1615156104cf57600080fd5b6104d8826103e5565b905080341415156104e857600080fd5b6002548210156105075781600260008282540392505081905550610510565b60006002819055505b6000809054906101000a900473ffffffffffffffffffffffffffffffffffffffff1673ffffffffffffffffffffffffffffffffffffffff1663a9059cbb33846040518363ffffffff167c0100000000000000000000000000000000000000000000000000000000028152600401808373ffffffffffffffffffffffffffffffffffffffff1673ffffffffffffffffffffffffffffffffffffffff16815260200182815260200192505050602060405180830381600087803b1580156105d457600080fd5b505af11580156105e8573d6000803e3d6000fd5b505050506040513d60208110156105fe57600080fd5b810190808051906020019092919050505050600560009054906101000a900473ffffffffffffffffffffffffffffffffffffffff1673ffffffffffffffffffffffffffffffffffffffff166108fc3073ffffffffffffffffffffffffffffffffffffffff16319081150290604051600060405180830381858888f1935050505015801561068f573d6000803e3d6000fd5b507f1ec0c95078c890035e941915909bcfe875eca2b01352f0caaf74680fe1d297ce3360008385604051808573ffffffffffffffffffffffffffffffffffffffff1673ffffffffffffffffffffffffffffffffffffffff1681526020018460018111156106f857fe5b60ff16815260200183815260200182815260200194505050505060405180910390a15050565b600061012c60065401421015151561073557600080fd5b614650600654014210151561074957600080fd5b60001515600760009054906101000a900460ff16151514151561076b57600080fd5b600460003373ffffffffffffffffffffffffffffffffffffffff1673ffffffffffffffffffffffffffffffffffffffff16815260200190815260200160002060009054906101000a900460ff1615156107c357600080fd5b6107cc82610e7d565b9050600160009054906101000a900473ffffffffffffffffffffffffffffffffffffffff1673ffffffffffffffffffffffffffffffffffffffff166323b872dd3330846040518463ffffffff167c0100000000000000000000000000000000000000000000000000000000028152600401808473ffffffffffffffffffffffffffffffffffffffff1673ffffffffffffffffffffffffffffffffffffffff1681526020018373ffffffffffffffffffffffffffffffffffffffff1673ffffffffffffffffffffffffffffffffffffffff1681526020018281526020019350505050602060405180830381600087803b1580156108c757600080fd5b505af11580156108db573d6000803e3d6000fd5b505050506040513d60208110156108f157600080fd5b810190808051906020019092919050505050600354821015610922578160036000828254039250508190555061092b565b60006003819055505b6000809054906101000a900473ffffffffffffffffffffffffffffffffffffffff1673ffffffffffffffffffffffffffffffffffffffff1663a9059cbb33846040518363ffffffff167c0100000000000000000000000000000000000000000000000000000000028152600401808373ffffffffffffffffffffffffffffffffffffffff1673ffffffffffffffffffffffffffffffffffffffff16815260200182815260200192505050602060405180830381600087803b1580156109ef57600080fd5b505af1158015610a03573d6000803e3d6000fd5b505050506040513d6020811015610a1957600080fd5b810190808051906020019092919050505050600160009054906101000a900473ffffffffffffffffffffffffffffffffffffffff1673ffffffffffffffffffffffffffffffffffffffff1663a9059cbb600560009054906101000a900473ffffffffffffffffffffffffffffffffffffffff16600160009054906101000a900473ffffffffffffffffffffffffffffffffffffffff1673ffffffffffffffffffffffffffffffffffffffff166370a08231306040518263ffffffff167c0100000000000000000000000000000000000000000000000000000000028152600401808273ffffffffffffffffffffffffffffffffffffffff1673ffffffffffffffffffffffffffffffffffffffff168152602001915050602060405180830381600087803b158015610b4957600080fd5b505af1158015610b5d573d6000803e3d6000fd5b505050506040513d6020811015610b7357600080fd5b81019080805190602001909291905050506040518363ffffffff167c0100000000000000000000000000000000000000000000000000000000028152600401808373ffffffffffffffffffffffffffffffffffffffff1673ffffffffffffffffffffffffffffffffffffffff16815260200182815260200192505050602060405180830381600087803b158015610c0957600080fd5b505af1158015610c1d573d6000803e3d6000fd5b505050506040513d6020811015610c3357600080fd5b810190808051906020019092919050505050600560009054906101000a900473ffffffffffffffffffffffffffffffffffffffff1673ffffffffffffffffffffffffffffffffffffffff166108fc3073ffffffffffffffffffffffffffffffffffffffff16319081150290604051600060405180830381858888f19350505050158015610cc4573d6000803e3d6000fd5b507f1ec0c95078c890035e941915909bcfe875eca2b01352f0caaf74680fe1d297ce3360018385604051808573ffffffffffffffffffffffffffffffffffffffff1673ffffffffffffffffffffffffffffffffffffffff168152602001846001811115610d2d57fe5b60ff16815260200183815260200182815260200194505050505060405180910390a15050565b60025481565b600760009054906101000a900460ff1681565b600560009054906101000a900473ffffffffffffffffffffffffffffffffffffffff1681565b60046020528060005260406000206000915054906101000a900460ff1681565b600160009054906101000a900473ffffffffffffffffffffffffffffffffffffffff1681565b600560009054906101000a900473ffffffffffffffffffffffffffffffffffffffff1673ffffffffffffffffffffffffffffffffffffffff163373ffffffffffffffffffffffffffffffffffffffff16141515610e3457600080fd5b6001600760006101000a81548160ff0219169083151502179055507f17df177307ce110517954e699bd03c3883f36029f4d4962abd635a364b5eb42960405160405180910390a1565b60008060009050600354831115610ead57600a600354811515610e9c57fe5b048101905060035483039250610ec3565b600a83811515610eb957fe5b0481019050600092505b600583811515610ecf57fe5b048101905080915050919050565b60065481565b600354815600a165627a7a72305820b2b530b1310ba4678be0f2f44d472eda2664e18cec0e122dd5456bff7ba94b4a0029",
  "source": "pragma solidity^0.4.24;\nimport \"./ERC20.sol\";\n\ncontract ICO {\n    ERC20 public IcoToken;\n    ERC20 public DefToken = ERC20(0x907B98479a589abAFC72926837B726B0D3582C3F);\n    uint public discountedEthTokensRemaining = 10000 * 10 ** 13;\n    uint public discountedDefTokensRemaining = 10000 * 10 ** 13;\n    mapping(address => bool) public whitelist;\n    address public owner;\n    enum token{ETH, DEF}\n    uint public deploymentTime;\n    bool public stopped = false;\n    event Sale(address buyer, token EthOrDef, uint EthOrDefUnits, uint IcoUnits);\n    event StopIco();\n    \n    constructor(address _IcoTokenAddress, address[] _whitelistedAddresses) public {\n        owner = msg.sender;\n        owner = IcoToken;\n        deploymentTime = now;\n        IcoToken = ERC20(_IcoTokenAddress);\n        uint len = _whitelistedAddresses.length;\n        for(uint i = 0; i  < len; i++) {\n            whitelist[_whitelistedAddresses[i]] = true;\n        }\n    }\n    \n    modifier isActive() {\n        require(now >= deploymentTime + 5 minutes);\n        require(now < deploymentTime + 5 hours);\n        require(stopped == false);\n        _;\n    }\n    \n    modifier isWhitelisted() {\n        require(whitelist[msg.sender]);\n        _;\n    }\n    \n    function EthCost(uint _numTokens) public view returns(uint) {\n        uint cost = 0;\n        if (_numTokens > discountedEthTokensRemaining) {\n            cost += discountedEthTokensRemaining * 10;\n            _numTokens -= discountedEthTokensRemaining;\n        } else {\n            cost += _numTokens * 10;\n            _numTokens = 0;\n        }\n        cost += _numTokens * 20;\n        return cost;\n    }\n    \n    function DefCost(uint _numTokens) public view returns(uint) {\n        uint cost = 0;\n        if (_numTokens > discountedDefTokensRemaining) {\n            cost += discountedDefTokensRemaining/10;\n            _numTokens -= discountedDefTokensRemaining;\n        } else {\n            cost += _numTokens / 10;\n            _numTokens = 0;\n        }\n        cost += _numTokens / 5;\n        return cost;\n    }\n    \n    function Stop() public {\n        require(msg.sender == owner);\n        stopped = true;\n        emit StopIco();\n    }\n    \n    function BuyUsingEth(uint _numTokens) public payable isActive() isWhitelisted() {\n        uint ethCost = EthCost(_numTokens);\n        require(msg.value == ethCost);\n        if(_numTokens < discountedEthTokensRemaining) {\n            discountedEthTokensRemaining -= _numTokens;\n        } else {\n            discountedEthTokensRemaining = 0;\n        }\n        IcoToken.transfer(msg.sender, _numTokens);\n        owner.transfer(address(this).balance);\n        emit Sale(msg.sender, token.ETH, ethCost, _numTokens);\n    }\n\n    function BuyUsingDef(uint _numTokens) public isActive() isWhitelisted() {\n        uint defCost = DefCost(_numTokens);\n        DefToken.transferFrom(msg.sender, this, defCost);\n        if(_numTokens < discountedDefTokensRemaining) {\n            discountedDefTokensRemaining -= _numTokens;\n        } else {\n            discountedDefTokensRemaining = 0;\n        }\n        IcoToken.transfer(msg.sender, _numTokens);\n        DefToken.transfer(owner, DefToken.balanceOf(this));\n        owner.transfer(address(this).balance);\n        emit Sale(msg.sender, token.DEF, defCost, _numTokens);\n    }\n    \n}",
  "sourcePath": "/home/amemerdankly/quest/solidity-ci/contracts/ICO.sol",
  "compiler": {
    "name": "solc",
    "version": "0.4.24+commit.e67f0147.Emscripten.clang"
  },
  "schemaVersion": "2.0.1",
  "updatedAt": "2018-08-28T07:12:03.976Z"
}