{
  "contractName": "TokenSale",
  "abi": [
    {
      "constant": true,
      "inputs": [],
      "name": "defLimit",
      "outputs": [
        {
          "name": "",
          "type": "uint256"
        }
      ],
      "payable": false,
      "stateMutability": "view",
      "type": "function"
    },
    {
      "constant": true,
      "inputs": [],
      "name": "defReceived",
      "outputs": [
        {
          "name": "",
          "type": "uint256"
        }
      ],
      "payable": false,
      "stateMutability": "view",
      "type": "function"
    },
    {
      "constant": true,
      "inputs": [],
      "name": "endTime",
      "outputs": [
        {
          "name": "",
          "type": "uint256"
        }
      ],
      "payable": false,
      "stateMutability": "view",
      "type": "function"
    },
    {
      "constant": true,
      "inputs": [],
      "name": "ethLimit",
      "outputs": [
        {
          "name": "",
          "type": "uint256"
        }
      ],
      "payable": false,
      "stateMutability": "view",
      "type": "function"
    },
    {
      "constant": true,
      "inputs": [],
      "name": "startTime",
      "outputs": [
        {
          "name": "",
          "type": "uint256"
        }
      ],
      "payable": false,
      "stateMutability": "view",
      "type": "function"
    },
    {
      "constant": true,
      "inputs": [],
      "name": "defToken",
      "outputs": [
        {
          "name": "",
          "type": "address"
        }
      ],
      "payable": false,
      "stateMutability": "view",
      "type": "function"
    },
    {
      "constant": true,
      "inputs": [],
      "name": "endEvent",
      "outputs": [
        {
          "name": "",
          "type": "bool"
        }
      ],
      "payable": false,
      "stateMutability": "view",
      "type": "function"
    },
    {
      "constant": true,
      "inputs": [],
      "name": "owner",
      "outputs": [
        {
          "name": "",
          "type": "address"
        }
      ],
      "payable": false,
      "stateMutability": "view",
      "type": "function"
    },
    {
      "constant": true,
      "inputs": [
        {
          "name": "",
          "type": "address"
        }
      ],
      "name": "whitelistedAddress",
      "outputs": [
        {
          "name": "",
          "type": "bool"
        }
      ],
      "payable": false,
      "stateMutability": "view",
      "type": "function"
    },
    {
      "constant": true,
      "inputs": [],
      "name": "ethReceived",
      "outputs": [
        {
          "name": "",
          "type": "uint256"
        }
      ],
      "payable": false,
      "stateMutability": "view",
      "type": "function"
    },
    {
      "constant": true,
      "inputs": [],
      "name": "token",
      "outputs": [
        {
          "name": "",
          "type": "address"
        }
      ],
      "payable": false,
      "stateMutability": "view",
      "type": "function"
    },
    {
      "inputs": [
        {
          "name": "_tokenAddress",
          "type": "address"
        },
        {
          "name": "_defAddress",
          "type": "address"
        }
      ],
      "payable": false,
      "stateMutability": "nonpayable",
      "type": "constructor"
    },
    {
      "anonymous": false,
      "inputs": [
        {
          "indexed": false,
          "name": "whitelistedAddress",
          "type": "address"
        },
        {
          "indexed": false,
          "name": "status",
          "type": "bool"
        }
      ],
      "name": "WhiteList",
      "type": "event"
    },
    {
      "anonymous": false,
      "inputs": [
        {
          "indexed": false,
          "name": "buyer",
          "type": "address"
        },
        {
          "indexed": false,
          "name": "ethValue",
          "type": "uint256"
        }
      ],
      "name": "SaleUsingEth",
      "type": "event"
    },
    {
      "anonymous": false,
      "inputs": [
        {
          "indexed": false,
          "name": "buyer",
          "type": "address"
        },
        {
          "indexed": false,
          "name": "defValue",
          "type": "uint256"
        }
      ],
      "name": "SaleUsingDef",
      "type": "event"
    },
    {
      "constant": false,
      "inputs": [],
      "name": "buyUsingEth",
      "outputs": [],
      "payable": true,
      "stateMutability": "payable",
      "type": "function"
    },
    {
      "constant": false,
      "inputs": [
        {
          "name": "_defAmount",
          "type": "uint256"
        }
      ],
      "name": "buyUsingDef",
      "outputs": [],
      "payable": true,
      "stateMutability": "payable",
      "type": "function"
    },
    {
      "constant": false,
      "inputs": [],
      "name": "stopEvent",
      "outputs": [],
      "payable": false,
      "stateMutability": "nonpayable",
      "type": "function"
    },
    {
      "constant": false,
      "inputs": [
        {
          "name": "_address",
          "type": "address"
        },
        {
          "name": "_status",
          "type": "bool"
        }
      ],
      "name": "addWhitelistedAddress",
      "outputs": [],
      "payable": false,
      "stateMutability": "nonpayable",
      "type": "function"
    }
  ],
  "bytecode": "0x60806040526000805560006001556000600560146101000a81548160ff02191690831515021790555034801561003457600080fd5b50604051604080611964833981018060405281019080805190602001909291908051906020019092919050505033600760006101000a81548173ffffffffffffffffffffffffffffffffffffffff021916908373ffffffffffffffffffffffffffffffffffffffff16021790555081600460006101000a81548173ffffffffffffffffffffffffffffffffffffffff021916908373ffffffffffffffffffffffffffffffffffffffff16021790555080600560006101000a81548173ffffffffffffffffffffffffffffffffffffffff021916908373ffffffffffffffffffffffffffffffffffffffff160217905550600042016002819055506146504201600381905550505061181a8061014a6000396000f3006080604052600436106100db576000357c0100000000000000000000000000000000000000000000000000000000900463ffffffff1680631a875d6c146100e05780631c29d1951461012f578063259d31e71461015a5780632a8c9a70146101855780632dd8e49d1461018f5780633197cbb6146101af57806351e8b5c6146101da57806360ba77911461020557806378e979251461021c5780637cf5c6bf1461024757806386ec61771461029e5780638da5cb5b146102cd578063c30796ab14610324578063f5f2de341461037f578063fc0c546a146103aa575b600080fd5b3480156100ec57600080fd5b5061012d600480360381019080803573ffffffffffffffffffffffffffffffffffffffff169060200190929190803515159060200190929190505050610401565b005b34801561013b57600080fd5b506101446104cb565b6040518082815260200191505060405180910390f35b34801561016657600080fd5b5061016f6104d6565b6040518082815260200191505060405180910390f35b61018d6104dc565b005b6101ad60048036038101908080359060200190929190505050610cfb565b005b3480156101bb57600080fd5b506101c461168e565b6040518082815260200191505060405180910390f35b3480156101e657600080fd5b506101ef611694565b6040518082815260200191505060405180910390f35b34801561021157600080fd5b5061021a6116a0565b005b34801561022857600080fd5b506102316116bd565b6040518082815260200191505060405180910390f35b34801561025357600080fd5b5061025c6116c3565b604051808273ffffffffffffffffffffffffffffffffffffffff1673ffffffffffffffffffffffffffffffffffffffff16815260200191505060405180910390f35b3480156102aa57600080fd5b506102b36116e9565b604051808215151515815260200191505060405180910390f35b3480156102d957600080fd5b506102e26116fc565b604051808273ffffffffffffffffffffffffffffffffffffffff1673ffffffffffffffffffffffffffffffffffffffff16815260200191505060405180910390f35b34801561033057600080fd5b50610365600480360381019080803573ffffffffffffffffffffffffffffffffffffffff169060200190929190505050611722565b604051808215151515815260200191505060405180910390f35b34801561038b57600080fd5b50610394611742565b6040518082815260200191505060405180910390f35b3480156103b657600080fd5b506103bf611748565b604051808273ffffffffffffffffffffffffffffffffffffffff1673ffffffffffffffffffffffffffffffffffffffff16815260200191505060405180910390f35b80600660008473ffffffffffffffffffffffffffffffffffffffff1673ffffffffffffffffffffffffffffffffffffffff16815260200190815260200160002060006101000a81548160ff0219169083151502179055507f606548d83067f365e979d5a0f16d7a3bff7c9184f76176a71e8a67c55a8cc7bd8282604051808373ffffffffffffffffffffffffffffffffffffffff1673ffffffffffffffffffffffffffffffffffffffff168152602001821515151581526020019250505060405180910390a15050565b662386f26fc1000081565b60015481565b60011515600660003373ffffffffffffffffffffffffffffffffffffffff1673ffffffffffffffffffffffffffffffffffffffff16815260200190815260200160002060009054906101000a900460ff1615151415156105ca576040517f08c379a00000000000000000000000000000000000000000000000000000000081526004018080602001828103825260258152602001807f4f6e6c792077686974656c697374656420616464726573732063616e206a6f6981526020017f6e2049434f00000000000000000000000000000000000000000000000000000081525060400191505060405180910390fd5b6002544210151515610644576040517f08c379a00000000000000000000000000000000000000000000000000000000081526004018080602001828103825260158152602001807f4576656e74206e6f74207965742073746172746564000000000000000000000081525060200191505060405180910390fd5b60001515600560149054906101000a900460ff1615151415156106cf576040517f08c379a00000000000000000000000000000000000000000000000000000000081526004018080602001828103825260118152602001807f4576656e74206861732073746f7070656400000000000000000000000000000081525060200191505060405180910390fd5b6003544211151515610749576040517f08c379a000000000000000000000000000000000000000000000000000000000815260040180806020018281038252600b8152602001807f4576656e7420656e64656400000000000000000000000000000000000000000081525060200191505060405180910390fd5b600054670de0b6b3a7640000101561087557600460009054906101000a900473ffffffffffffffffffffffffffffffffffffffff1673ffffffffffffffffffffffffffffffffffffffff1663a9059cbb336107af6113883461176e90919063ffffffff16565b6040518363ffffffff167c0100000000000000000000000000000000000000000000000000000000028152600401808373ffffffffffffffffffffffffffffffffffffffff1673ffffffffffffffffffffffffffffffffffffffff16815260200182815260200192505050602060405180830381600087803b15801561083457600080fd5b505af1158015610848573d6000803e3d6000fd5b505050506040513d602081101561085e57600080fd5b810190808051906020019092919050505050610c0a565b61088a346000546117ac90919063ffffffff16565b670de0b6b3a76400001015156109b457600460009054906101000a900473ffffffffffffffffffffffffffffffffffffffff1673ffffffffffffffffffffffffffffffffffffffff1663a9059cbb336108ee6127103461176e90919063ffffffff16565b6040518363ffffffff167c0100000000000000000000000000000000000000000000000000000000028152600401808373ffffffffffffffffffffffffffffffffffffffff1673ffffffffffffffffffffffffffffffffffffffff16815260200182815260200192505050602060405180830381600087803b15801561097357600080fd5b505af1158015610987573d6000803e3d6000fd5b505050506040513d602081101561099d57600080fd5b810190808051906020019092919050505050610c09565b600460009054906101000a900473ffffffffffffffffffffffffffffffffffffffff1673ffffffffffffffffffffffffffffffffffffffff1663a9059cbb33612710610a13600054670de0b6b3a76400006117cd90919063ffffffff16565b026040518363ffffffff167c0100000000000000000000000000000000000000000000000000000000028152600401808373ffffffffffffffffffffffffffffffffffffffff1673ffffffffffffffffffffffffffffffffffffffff16815260200182815260200192505050602060405180830381600087803b158015610a9957600080fd5b505af1158015610aad573d6000803e3d6000fd5b505050506040513d6020811015610ac357600080fd5b810190808051906020019092919050505050600460009054906101000a900473ffffffffffffffffffffffffffffffffffffffff1673ffffffffffffffffffffffffffffffffffffffff1663a9059cbb33611388610b46610b37600054670de0b6b3a76400006117cd90919063ffffffff16565b346117cd90919063ffffffff16565b026040518363ffffffff167c0100000000000000000000000000000000000000000000000000000000028152600401808373ffffffffffffffffffffffffffffffffffffffff1673ffffffffffffffffffffffffffffffffffffffff16815260200182815260200192505050602060405180830381600087803b158015610bcc57600080fd5b505af1158015610be0573d6000803e3d6000fd5b505050506040513d6020811015610bf657600080fd5b8101908080519060200190929190505050505b5b610c1f346000546117ac90919063ffffffff16565b600081905550600760009054906101000a900473ffffffffffffffffffffffffffffffffffffffff1673ffffffffffffffffffffffffffffffffffffffff166108fc349081150290604051600060405180830381858888f19350505050158015610c8d573d6000803e3d6000fd5b507f7dca12cc3453439b1f7f848d8481c5c11a1784853d306389db0a4bfadf9b79113334604051808373ffffffffffffffffffffffffffffffffffffffff1673ffffffffffffffffffffffffffffffffffffffff1681526020018281526020019250505060405180910390a1565b60011515600660003373ffffffffffffffffffffffffffffffffffffffff1673ffffffffffffffffffffffffffffffffffffffff16815260200190815260200160002060009054906101000a900460ff161515141515610de9576040517f08c379a00000000000000000000000000000000000000000000000000000000081526004018080602001828103825260258152602001807f4f6e6c792077686974656c697374656420616464726573732063616e206a6f6981526020017f6e2049434f00000000000000000000000000000000000000000000000000000081525060400191505060405180910390fd5b6002544210151515610e63576040517f08c379a00000000000000000000000000000000000000000000000000000000081526004018080602001828103825260158152602001807f4576656e74206e6f74207965742073746172746564000000000000000000000081525060200191505060405180910390fd5b60001515600560149054906101000a900460ff161515141515610eee576040517f08c379a00000000000000000000000000000000000000000000000000000000081526004018080602001828103825260118152602001807f4576656e74206861732073746f7070656400000000000000000000000000000081525060200191505060405180910390fd5b6003544211151515610f68576040517f08c379a000000000000000000000000000000000000000000000000000000000815260040180806020018281038252600b8152602001807f4576656e7420656e64656400000000000000000000000000000000000000000081525060200191505060405180910390fd5b600154662386f26fc1000010156110c657600560009054906101000a900473ffffffffffffffffffffffffffffffffffffffff1673ffffffffffffffffffffffffffffffffffffffff166323b872dd3330610fcd60058661176e90919063ffffffff16565b6040518463ffffffff167c0100000000000000000000000000000000000000000000000000000000028152600401808473ffffffffffffffffffffffffffffffffffffffff1673ffffffffffffffffffffffffffffffffffffffff1681526020018373ffffffffffffffffffffffffffffffffffffffff1673ffffffffffffffffffffffffffffffffffffffff1681526020018281526020019350505050602060405180830381600087803b15801561108557600080fd5b505af1158015611099573d6000803e3d6000fd5b505050506040513d60208110156110af57600080fd5b8101908080519060200190929190505050506114e2565b8060015401670de0b6b3a764000010151561122857600560009054906101000a900473ffffffffffffffffffffffffffffffffffffffff1673ffffffffffffffffffffffffffffffffffffffff166323b872dd333061112f600a8661176e90919063ffffffff16565b6040518463ffffffff167c0100000000000000000000000000000000000000000000000000000000028152600401808473ffffffffffffffffffffffffffffffffffffffff1673ffffffffffffffffffffffffffffffffffffffff1681526020018373ffffffffffffffffffffffffffffffffffffffff1673ffffffffffffffffffffffffffffffffffffffff1681526020018281526020019350505050602060405180830381600087803b1580156111e757600080fd5b505af11580156111fb573d6000803e3d6000fd5b505050506040513d602081101561121157600080fd5b8101908080519060200190929190505050506114e1565b600560009054906101000a900473ffffffffffffffffffffffffffffffffffffffff1673ffffffffffffffffffffffffffffffffffffffff166323b872dd3330600a611286600154662386f26fc100006117cd90919063ffffffff16565b026040518463ffffffff167c0100000000000000000000000000000000000000000000000000000000028152600401808473ffffffffffffffffffffffffffffffffffffffff1673ffffffffffffffffffffffffffffffffffffffff1681526020018373ffffffffffffffffffffffffffffffffffffffff1673ffffffffffffffffffffffffffffffffffffffff1681526020018281526020019350505050602060405180830381600087803b15801561133f57600080fd5b505af1158015611353573d6000803e3d6000fd5b505050506040513d602081101561136957600080fd5b810190808051906020019092919050505050600560009054906101000a900473ffffffffffffffffffffffffffffffffffffffff1673ffffffffffffffffffffffffffffffffffffffff166323b872dd333060056113eb6113dc600154662386f26fc100006117cd90919063ffffffff16565b876117cd90919063ffffffff16565b026040518463ffffffff167c0100000000000000000000000000000000000000000000000000000000028152600401808473ffffffffffffffffffffffffffffffffffffffff1673ffffffffffffffffffffffffffffffffffffffff1681526020018373ffffffffffffffffffffffffffffffffffffffff1673ffffffffffffffffffffffffffffffffffffffff1681526020018281526020019350505050602060405180830381600087803b1580156114a457600080fd5b505af11580156114b8573d6000803e3d6000fd5b505050506040513d60208110156114ce57600080fd5b8101908080519060200190929190505050505b5b6114f7816001546117ac90919063ffffffff16565b600181905550600560009054906101000a900473ffffffffffffffffffffffffffffffffffffffff1673ffffffffffffffffffffffffffffffffffffffff1663a9059cbb600760009054906101000a900473ffffffffffffffffffffffffffffffffffffffff16836040518363ffffffff167c0100000000000000000000000000000000000000000000000000000000028152600401808373ffffffffffffffffffffffffffffffffffffffff1673ffffffffffffffffffffffffffffffffffffffff16815260200182815260200192505050602060405180830381600087803b1580156115e457600080fd5b505af11580156115f8573d6000803e3d6000fd5b505050506040513d602081101561160e57600080fd5b8101908080519060200190929190505050507f0ae2811f66613f39bef1b3ded0897ef0a48268c491adf0643f4e03876d94af5a3382604051808373ffffffffffffffffffffffffffffffffffffffff1673ffffffffffffffffffffffffffffffffffffffff1681526020018281526020019250505060405180910390a150565b60035481565b670de0b6b3a764000081565b6001600560146101000a81548160ff021916908315150217905550565b60025481565b600560009054906101000a900473ffffffffffffffffffffffffffffffffffffffff1681565b600560149054906101000a900460ff1681565b600760009054906101000a900473ffffffffffffffffffffffffffffffffffffffff1681565b60066020528060005260406000206000915054906101000a900460ff1681565b60005481565b600460009054906101000a900473ffffffffffffffffffffffffffffffffffffffff1681565b600080600084141561178357600091506117a5565b828402905082848281151561179457fe5b041415156117a157600080fd5b8091505b5092915050565b60008082840190508381101515156117c357600080fd5b8091505092915050565b6000808383111515156117df57600080fd5b828403905080915050929150505600a165627a7a72305820cca459c995ccfd46aa5d1354866facc327be6d19652f3db9f4f8f120903f4ee50029",
  "source": "pragma solidity ^0.4.24;\n\nimport \"./SafeMath.sol\";\nimport \"./NewToken.sol\";\n\ncontract TokenSale {\n    \n    using SafeMath for uint256;\n\n    uint256 public constant ethLimit = 1e18;\n    uint256 public constant defLimit = 1000e13;\n\n    uint256 public ethReceived = 0;\n    uint256 public defReceived = 0;\n\n    uint256 public startTime;\n    uint256 public endTime;\n\n    NewToken public token;\n    StandardToken public defToken;\n\n    bool public endEvent = false;\n\n    mapping(address => bool) public whitelistedAddress;\n\n    address public owner;\n\n    event WhiteList(address whitelistedAddress, bool status);\n    event SaleUsingEth(address buyer, uint256 ethValue);\n    event SaleUsingDef(address buyer, uint256 defValue);\n    \n    constructor (address _tokenAddress, address _defAddress) public {\n        owner = msg.sender;\n        token = NewToken(_tokenAddress);\n        defToken = StandardToken(_defAddress);\n        startTime = block.timestamp + 0 * 60;\n        endTime = block.timestamp + 5 * 60 * 60;\n    }\n\n    modifier onlyWhitelisted() {\n        require(whitelistedAddress[msg.sender] == true, \"Only whitelisted address can join ICO\");\n        _;\n    }\n\n    modifier eventStarted() {\n        require(now >= startTime, \"Event not yet started\");\n        _;\n    }\n\n    modifier eventNotEnded() {\n        require(endEvent == false, \"Event has stopped\");\n        require(now <= endTime, \"Event ended\");\n        _;\n    }\n\n    function buyUsingEth() public payable onlyWhitelisted eventStarted eventNotEnded{\n\n        if (ethLimit < ethReceived) {\n            token.transfer(msg.sender, msg.value.mul(5000));\n        }\n\n        else if (ethLimit >= ethReceived.add(msg.value)) {\n            token.transfer(msg.sender, msg.value.mul(10000)); \n        }\n\n        else {\n            token.transfer(msg.sender, ethLimit.sub(ethReceived) * 10000);\n\n            token.transfer(msg.sender, msg.value.sub(ethLimit.sub(ethReceived)) * 5000);\n        }\n\n        ethReceived = ethReceived.add(msg.value); \n\n        owner.transfer(msg.value);\n        \n        emit SaleUsingEth(msg.sender, msg.value);\n    }\n\n    function buyUsingDef(uint256 _defAmount) public payable onlyWhitelisted eventStarted eventNotEnded{\n        \n        if (defLimit < defReceived) {\n            defToken.transferFrom(msg.sender, this, _defAmount.mul(5));\n        }\n\n        else if (ethLimit >= (defReceived + _defAmount)) {\n            defToken.transferFrom(msg.sender, this,  _defAmount.mul(10)); \n        }\n\n        else {\n            defToken.transferFrom(msg.sender, this, defLimit.sub(defReceived) * 10);\n\n            defToken.transferFrom(msg.sender, this, _defAmount.sub(defLimit.sub(defReceived)) * 5);\n        }\n\n        defReceived = defReceived.add(_defAmount); \n        defToken.transfer(owner, _defAmount);\n        emit SaleUsingDef(msg.sender, _defAmount);\n    }\n\n    function stopEvent() public {\n        endEvent = true;\n    }\n\n    function addWhitelistedAddress(address _address, bool _status) public {\n        whitelistedAddress[_address] = _status;\n        emit WhiteList(_address, _status);\n    }\n}",
  "sourcePath": "/home/rosh/workspace/eth-demo/solidity-ci/contracts/TokenSale.sol",
  "compiler": {
    "name": "solc",
    "version": "0.4.24+commit.e67f0147.Emscripten.clang"
  },
  "schemaVersion": "2.0.1",
  "updatedAt": "2018-08-28T07:46:07.033Z"
}